:020000040800F2
:10000000C0310120850200084F03000847030008A3
:100010004B030008410300085104000800000000E1
:10002000000000000000000000000000C501000802
:1000300045030008000000002102000879030008C1
:100040009F0200089F0200089F0200089F0200080C
:100050009F0200089F0200089F0200089F020008FC
:100060009F0200089F0200089F0200089F020008EC
:100070009F0200089F0200089F0200089F020008DC
:100080009F0200089F0200089F0200089F020008CC
:100090009F0200089F0200089F0200089F020008BC
:1000A0009F0200089F0200089F0200089F020008AC
:1000B0009F0200089F0200089F0200089F0200089C
:1000C0009F0200089F0200089F0200089F0200088C
:1000D0009F0200089F0200089F0200089F0200087C
:1000E0009F0200089F0200089F0200089F0200086C
:1000F0009F0200089F0200089F0200089F0200085C
:100100009F0200089F0200089F0200089F0200084B
:100110009F0200089F0200089F0200089F0200083B
:100120009F0200089F0200089F0200089F0200082B
:100130009F0200089F0200089F0200089F0200081B
:100140009F0200089F0200089F0200089F0200080B
:100150009F0200089F0200089F0200089F020008FB
:100160009F0200089F0200089F0200089F020008EB
:100170009F0200089F0200089F0200080000000084
:100180009F0200089F0200089F0200089F020008CB
:100190009F0200089F0200089F0200080000000064
:1001A0009F0200089F0200089F020008DFF810D09D
:1001B00000F0B4F800480047E9070008AFF30080FA
:1001C000C03101202C4B19680868B0E8F04F80F36B
:1001D0000988BFF36F8F4FF0000080F311887047DC
:1001E0000000000008480068006880F308884FF0AD
:1001F000000080F3148862B661B6BFF34F8FBFF37F
:100200006F8F00DF00BF00BF08ED00E0DFF80C00DB
:10021000016841F470010160704700BF88ED00E0A3
:10022000EFF30980BFF36F8F134B1A681EF0100FA6
:1002300008BF20ED108A20E9F04F106009B44FF09C
:10024000500080F31188BFF34F8FBFF36F8F01F021
:10025000F5FD4FF0000080F3118809BC19680868AB
:10026000B0E8F04F1EF0100F08BFB0EC108A80F31A
:100270000988BFF36F8F704710000020EFF30580EF
:10028000704700000648804706480047FEE7FEE743
:10029000FEE7FEE7FEE7FEE7FEE7FEE7FEE7FEE736
:1002A00089030008AD01000840EA01039B0703D061
:1002B00009E008C9121F08C0042AFAD203E011F8A5
:1002C000013B00F8013B521EF9D27047D2B201E067
:1002D00000F8012B491EFBD270470022F6E710B54B
:1002E00013460A4604461946FFF7F0FF204610BDA4
:1002F00030B50B46014600202022012409E021FAF6
:1003000002F59D4205D303FA02F5491B04FA02F5F2
:100310002844151EA2F10102F1DC30BD064C074D48
:1003200006E0E06840F0010394E8070098471034C5
:10033000AC42F6D3FFF73EFFE02800080029000892
:1003400000BFFEE7704700BFFEE700BFFEE7704753
:1003500010B5002807DA0A07140E054A00F00F034B
:100360001B1FD45403E00A07130E024A135410BD96
:1003700018ED00E000E400E010B502F045F80128B7
:1003800001D001F055FE10BD08B52D48006840F4BD
:1003900070002B4908602B48006840F00100294993
:1003A000086028480830006840F08000254908317E
:1003B00008600020009002E00098401C00904CF281
:1003C000503100988842F7D31E480830006840F04A
:1003D00090001C49083108600020009002E000985D
:1003E000401C00904CF2503100988842F7D31548D9
:1003F0000830006820F003001249083108601148F5
:100400000068114908400F4908600846006820F458
:100410008020086000200B490831086000BF0948AF
:100420000830006800200028F9D108480549091D56
:100430000860002003490C31086001F09BF808BDFA
:1004400088ED00E000380240FFFFF6FE1030002487
:1004500000BFFEE70FB4054B10B503A9044A02988C
:1004600000F018F810BC5DF814FB00002D06000821
:100470008C00002002E008C8121F08C1002AFAD12F
:1004800070477047002001E001C1121F002AFBD114
:10049000704700002DE9FF4F89B09B4604460025B8
:1004A00006E025280BD05A460B999047641C6D1C1A
:1004B00020780028F5D10DB02846BDE8F08F002740
:1004C000B8460122474900E0074314F8013F203BAA
:1004D00002FA03F00842F7D120782E2819D114F837
:1004E000010F47F004072A280ED06FF02F02207862
:1004F000A0F1300109290CD808EB880102EB410179
:1005000000EB0108641CF2E70A98641C50F8048BA5
:100510000A9020780028CED0642808D0692806D018
:1005200075281ED05A460B9990476D1C58E00A99C1
:100530004FF00A0901C90A91002802DA40422D2130
:1005400002E0390504D52B218DF82010012103E0AC
:10055000F90704D02021F7E78A4608AE0DE0002114
:10056000FAE70A994FF00A0901C90A91F7E74946E3
:10057000FFF7BEFE303106F8011D0028F7D1ADEBC4
:10058000060000F12009780701D44FF00108C845A2
:1005900002DDA8EB090000E000208046002706E00D
:1005A00008A85A46C05D0B9990476D1C7F1C5745A3
:1005B000F6DB04E030205A460B9990476D1CB8F1E9
:1005C0000001A8F10108F5DC05E016F8010B5A4618
:1005D0000B9990476D1CB9F10001A9F10109F4DCF8
:1005E000641C65E70928010070B50446042000F08A
:1005F000C5FF0C48047025464FF47A70454301202E
:10060000094908604FF0E020006940F002004FF017
:10061000E021086108464561006940F00100086179
:1006200070BD0000000000200400002070B50446EA
:100630000D46E0B201F036F9204670BDF0B5034634
:100640001C6A5D6A00200DE00126864016403EB11E
:1006500087000F26BE40B443860001FA06F63443F5
:10066000461CB0B20828EFD3082011E001268640CE
:1006700016405EB1A0F10806B7000F26BE40B54394
:10068000A0F10806B60001FA06F63543461CB0B2E2
:100690001028EBD31C625D62F0BDF0B504460D4638
:1006A00016462168E268002019E0012787401F40B4
:1006B0009FB14FEA400C032707FA0CF7B9434700F4
:1006C00005FA07F739434FEA400C032707FA0CF7FE
:1006D000BA43470006FA07F73A43471CB8B2102856
:1006E000E3D32160E260F0BDF0B50C461546012C65
:1006F00003D146681E43466002E046689E4346605A
:10070000826800210DE001268E401E403EB14F0060
:100710000326BE40B2434E0005FA06F632434E1C95
:10072000B1B21029EFD38260F0BD000013E00A4897
:100730000068C0430949C1F89C024FF47A7001F087
:100740001BFA0748016807A0FFF784FE0448006809
:10075000401C03490860EAE79C8241420080414214
:100760000800002068656C6C6F206D795F746173A0
:100770006B5F6C65645F302025640A0000240EE026
:1007800007480068C0430749C1F828024FF4FA70CF
:1007900001F0F2F9214604A0FFF75CFE641CEFE7CC
:1007A000280240420000404268656C6C6F206D7901
:1007B0005F7461736B5F6C65645F312025640A0050
:1007C00010B540F6034000F021FE802300220121F5
:1007D0000448FFF762FF8023022200210148FFF74F
:1007E00083FF10BD000C02400EB50020029000F007
:1007F000D9FEFFF7E5FF4FF4165000F0F5FFA820F3
:10080000FFF7F2FE14A0FFF725FE02A80121002346
:100810008A02CDE9001012A1164801F0C1FD0020A6
:10082000012103468A02CDE900100DA1124801F012
:10083000B7FD01F0ADFA4FF4FA6001F09DF90298AE
:1008400028B1029801F0C6F90CA0FFF703FE0DA035
:10085000FFF700FE00BFFEE773746172740A0000C8
:100860004D79204669727374204672656552544F03
:10087000530000002D0700087D07000864656C65C3
:1008800074650A00656E640A000000002DE9F041FD
:1008900005460E462648076826480068001D01F0F8
:1008A00029F850B92348006890F82C10012088409E
:1008B00021490968814320480160681CD8B9D6B134
:1008C0001E4948681B49096888601A498268096896
:1008D000CA6018490968091D82685160154909688C
:1008E000091D8160154A134909684A611146096862
:1008F000491C11601AE07C190E4800684460BC4233
:1009000007D20C480168091D0D48006801F016F86F
:100910000CE008480168091D0A48006801F00EF85B
:1009200009480068844201D207480460BDE8F081AC
:100930002400002010000020280000208401002056
:1009400018000020140000204000002010B50446CC
:1009500001F01AF831480068401C304908603048FE
:10096000006840B92E4804600846006801280DD18F
:1009700000F0B2F90AE02B48006838B9284800684E
:10098000C06AE16A884201D82548046026480068A8
:10099000401C2549086008460068206494F82C1023
:1009A0000120884021490968084320490860E16A1C
:1009B00001EB81011E4A02EB81014868A060826858
:1009C000E260211D826851608160E16A01EB810172
:1009D000174A02EB81026261E16A01EB8101144A6C
:1009E00052F82110491CE26A02EB8202104B43F8D4
:1009F000221000F0F3FF0B48006868B10848006857
:100A0000C06AE16A884207D24FF080500949086005
:100A1000BFF34F8FBFF36F8F10BD00002000002089
:100A2000100000202C0000203C00002028000020A6
:100A3000D000002004ED00E010B500F0A5FF104844
:100A40000068D0B90F4800F069FF0F4800F066FF5A
:100A50000C480E4908600C480D49086000220C2122
:100A60000A2001F0FFFA064908600846006820B134
:100A700008A10348006801F029F800F0AFFF10BD9D
:100A80005800002098010020AC01002050000020F8
:100A900054000020546D72510000000010B516E0A3
:100AA00000F072FF0C48C068C468201D00F022FFEF
:100AB0000A480068401E0949086009480068401E4D
:100AC0000749086000F08AFF204600F020F804483B
:100AD00000680028E4D110BD700100202000002033
:100AE0001C00002070B504460D46206C70B1216CCE
:100AF000E0680144E160D4E90210884201D3216832
:100B0000E1602846226CE168FFF7CEFB70BD10B5AE
:100B10000446206B00F080FF204600F07DFF10BDF2
:100B20000146084A126812680AB9012200E0002250
:100B30000A600A6822B9034A1268D268106800E0A5
:100B4000002070475000002030B54FF49633154810
:100B500000F007042CB1C01D20F00700114C041B4D
:100B60001B1B0246104C226000240F4D6C60D018F5
:100B7000083820F007000D4C206000240B4D2D6834
:100B80006C600A4D2D682C601146441A4C60074C6D
:100B900024680C60064D4C682C60064D4C682C6037
:100BA00030BD0000C0010020640000206C00002067
:100BB000740000207000002000BFFFF76FFF0648A0
:100BC00000680128F9D94FF0805004490860BFF34C
:100BD0004F8FBFF36F8FF0E7D000002004ED00E0EF
:100BE0002DE9F04106460D4617469846069C0DB97C
:100BF000246000E02760E66325640121204601F0BF
:100C000065FA84F84C80BDE8F0812DE9F05F8246FA
:100C10000F4690469B460A9E0C9C4FEA8801A522EF
:100C2000206BFFF753FBA8F10100216B01EB80095A
:100C300029F0070909F0070008B9012000E00020A9
:100C400050B900BF502080F31188BFF34F8FBFF31E
:100C50006F8F00BF00BFFEE77FB1002507E0795D21
:100C600004F134004155785D00B902E06D1C0A2D95
:100C7000F5D300BF00213D200155052E01D20120F2
:100C800000E0002050B900BF502080F31188BFF36E
:100C90004F8FBFF36F8F00BF00BFFEE7052E00D35D
:100CA0000426E662A664201D00F045FE04F118004B
:100CB00000F041FE2461C6F10500A06164625A465D
:100CC0005146484600F0FAFA20600B9808B10B989C
:100CD0000460BDE8F09F000010B5002407E004EBBD
:100CE00084010F4A02EB810000F018FE641C052C01
:100CF000F5D30C4800F012FE0B4800F00FFE0B4835
:100D000000F00CFE0A4800F009FE0A4800F006FE5A
:100D100004480949086004480849086010BD0000FB
:100D2000D000002034010020480100205C01002098
:100D30007001002084010020140000201800002011
:100D400010B50146164800E0006803688B42FBD3EB
:100D50000246436813448B4204D143684C682344E1
:100D6000436001460A464B6813440468A34211D10C
:100D70000C4C03682468A34208D04B68046864687C
:100D800023444B6003681B680B6005E0054B1B6840
:100D90000B6001E003680B60884200D0016010BD69
:100DA000640000206C0000202DE9F04104460D464F
:100DB00016461F464FF0000865602461B5420CD806
:100DC000F01BA169884202D34FF0010811E0211DF8
:100DD0000948006800F0B2FD0BE0BE4204D2BD42FB
:100DE00002D34FF0010804E0211D0448006800F020
:100DF000A5FD4046BDE8F0815400002050000020D1
:100E000070B5054600F0C0FDA86B08B9012400E0EC
:100E1000002400F0E3FD204670BD000070B50546DB
:100E20000E460E480068C068C468201D00F062FDD0
:100E300094F8280000F0040028B1324629462046E4
:100E400000F0D6F805E094F8280000F0FE0084F8E1
:100E500028002046216A884770BD0000500000200D
:100E60007FB57FE0019800287CDB039C606908B9AE
:100E7000012000E0002010B9201D00F03BFD684675
:100E800000F0E2F8054601980A2869D2DFE800F090
:100E90006805072E365806082F3700BF00BF00BF71
:100EA00094F8280040F0010084F828000298A26914
:100EB000811803462A462046FFF776FFA8B194F82A
:100EC000280000F0040038B10298A26981182A466F
:100ED000204600F08DF805E094F8280000F0FE00B0
:100EE00084F828002046216A88473AE000BF94F839
:100EF000280000F0FE0084F8280032E000BF94F8DB
:100F0000280040F0010084F828000298A061A06940
:100F100008B1012000E0002050B900BF502080F34C
:100F20001188BFF34F8FBFF36F8F00BF00BFFEE785
:100F3000A06941192B462A462046FFF735FF10E0ED
:100F400094F8280000F0020018B9204600F064FD73
:100F500005E094F8280000F0FE0084F8280000E086
:100F600000BF00BF002201A90348006801F01CF97E
:100F700000287FF477AF7FBD58000020F8B5054604
:100F80000C4600F053FF684600F05EF806460098F5
:100F900020BB44B9B54206D801F0BAFB3146284619
:100FA000FFF73CFF1CE03CB10E480068006808B940
:100FB000012000E000200446A91B22460A480068E0
:100FC00000F0B4FD01F0A4FB50B94FF08050074988
:100FD0000860BFF34F8FBFF36F8F01E001F098FB04
:100FE000F8BD0000540000205800002004ED00E08F
:100FF00070B504460D46164604E0A0690544204637
:10100000216A8847A06941192B4632462046FFF7DE
:10101000CBFE0028F1D170BD09480068006808B90E
:10102000012000E0002020B14FF0FF3005490860AA
:1010300005E003480068C06800680249086070471E
:10104000140000204000002070B5044601F0ECF9C7
:10105000054607480068854204D200F00BF80120DD
:10106000206001E00020206001480560284670BD36
:101070006000002070B508E00D480068C068046892
:101080004FF0FF312046FFF7C9FE094800680068AD
:1010900008B9012000E000200028EDD004480568D0
:1010A00004480068024908600248056070BD0000FD
:1010B00050000020540000200E480068401C08B971
:1010C000012000E0002050B900BF502080F31188BB
:1010D000BFF34F8FBFF36F8F00BF00BFFEE700BFAE
:1010E000502080F31188BFF34F8FBFF36F8F00BF85
:1010F00000BFFEE78000002008B500BF6846FFF78C
:101100000FFD044620460099FFF738FFFFF7A8FEC1
:10111000F4E770B5044600F037FC94F9455010E050
:10112000606A08B9012000E0002038B904F1240009
:1011300001F05EFA18B100F0D7FD00E003E0681E90
:1011400045B2002DECDC00BFFF2084F8450000F024
:1011500045FC00F019FC94F9445010E0206908B9EE
:10116000012000E0002048B904F1100001F040FA2D
:1011700008B100F0B9FD681E45B200E001E0002DA5
:10118000ECDC00BFFF2084F8440000F027FC70BDB9
:101190002DE9F04705464FF0000900F047FE4248B0
:1011A000006808B9FFF7D0FC75B105F00700C0F181
:1011B0001008C8F1FF30A84201D2012000E0002051
:1011C00008B9454400E00025012000EBE570002847
:1011D00053D0002D51D03548006885424DD8344E4B
:1011E0003046046801E0264624686068A84202D2BE
:1011F00020680028F7D12C48006884423DD0306830
:1012000000F10809206830606068401B102819D977
:10121000671907F0070008B9012000E0002050B965
:1012200000BF502080F31188BFF34F8FBFF36F8F43
:1012300000BF00BFFEE76068401B7860656038460D
:10124000FFF77EFD194960680968081A17490860A8
:101250000846006817490968884203D213480068A5
:1012600014490860606840F0004060600020206021
:1012700011480068401C1049086001F049FA09F063
:10128000070008B9012000E0002050B900BF50203D
:1012900080F31188BFF34F8FBFF36F8F00BF00BF84
:1012A000FEE74846BDE8F0876C0000207000002093
:1012B000640000207400002078000020001F4FF020
:1012C00080730360001F21F001030360001F054BC2
:1012D000036014380260001F6FF0020303602038BF
:1012E00070470000B91000082DE9F04F8CB0064699
:1012F00000200A903EA090E8004CC068CDE905BEF1
:10130000CDF810A007900FF2EC0ADAE9000ACDE957
:10131000020A0FF2E00ADAE9000ACDE9000A3848C9
:101320000068C0F381000B900B9820B1012804D015
:10133000022828D103E0334927E0334925E030482B
:10134000001F006800F03F072D48001F0068C0F331
:10135000881C2B48001F0068C0F30140401C4FEA66
:1013600040092748001F006800F48008B8F5800F86
:1013700001D1254B00E0234BB3FBF7F000FB0CF051
:10138000B0FBF9F101E01F4900BF00BF1C48006835
:10139000C0F3031404A8055D21FA05F2184800689B
:1013A000C0F3822402A8055D22FA05F009901448D2
:1013B0000068C0F342341DF8045022FA05F008908A
:1013C00036B1012E06D0022E06D0032E0AD106E039
:1013D0000A9108E00A9206E009980A9003E008984A
:1013E0000A9000E000BF00BF0A980CB0BDE8F08F83
:1013F00000000000000000000102030406070809C5
:10140000083802400024F40040787D01074A02EBCE
:101410009011D1F8001800F01F0301229A401143E7
:10142000024B03EB9012C2F80018704700300240E4
:10143000074A02EB9011D1F8001800F01F030122B7
:101440009A409143024B03EB9012C2F80018704788
:1014500000300240074A02EB9011D1F8001800F06A
:101460001F0301229A401143024B03EB9012C2F872
:101470000018704700300240002000213A4A1268EC
:1014800042F48032384B1A6000BF401C364A126862
:1014900002F4003119B94FF6FF729042F5D1324A89
:1014A000126802F400320AB900BFFEE72E4A403249
:1014B000126842F080522C4B40331A602B4A12685B
:1014C00042F44042294B1A60274A08321268264BE0
:1014D00008331A601A46126842F400421A601A462B
:1014E000126842F4A0521A60214A1B1F1A601A1F88
:1014F000126842F080721B1F1A6000BF1A4A1268FD
:1015000002F00072002AF9D0184A126842F48032C0
:10151000164B1A6000BF154A526802F48032002A46
:10152000F9D0124A126842F40032104B1A6000BF20
:101530000E4A526802F40032002AF9D00A4A0832F0
:10154000126822F00302084B08331A601A46126828
:1015500042F002021A6000BF034A0832126802F029
:101560000802002AF8D0704700380240007000409E
:101570001964400910B5FFF77FFF10BD042808D19A
:101580004FF0E021096941F004014FF0E0221161C0
:1015900007E04FF0E021096921F004014FF0E0225B
:1015A0001161704710B5124800684FF47A71B0FBB2
:1015B000F1F4601EB0F1807F01D301200FE0601EC6
:1015C0004FF0E02148610F214FF0FF30FEF7C0FEE1
:1015D00000204FF0E021886107200861002008B159
:1015E00000BFFEE70021481EFEF7B2FE10BD00005E
:1015F0000C0000202DE9F04704460D460027B846B0
:10160000B94600263349601A8C4235D00CDC32488A
:101610002044E8B1B0F5806F1FD0B0F5006F21D045
:10162000B0F5406F32D122E0B0F5806F29D0B0F52F
:10163000184F03D0B0F51C4F28D104E00320FFF76A
:1016400053FE074623E00320FFF74EFE07461EE049
:101650000220FFF749FE074619E00220FFF744FE8B
:10166000074614E00220FFF73FFE07460FE0022086
:10167000FFF73AFE07460AE00220FFF735FE07466D
:1016800005E00220FFF730FE074600E000BF00BF84
:10169000E06800F4004070B1780000EB5500B0FB4A
:1016A000F5F64FF6F07006EA0008C6F3420948EA7C
:1016B0000900A0600CE007EB5500B0FBF5F64FF613
:1016C000F07006EA000806F00F0948EA0900A06079
:1016D000BDE8F0870078004000BCFFBFC1F30802FE
:1016E0004260704710B504463349601A8C424DD0B1
:1016F0000CDC32482044E0B1B0F5806F22D0B0F568
:10170000006F31D0B0F5406F52D136E0B0F5806F48
:1017100045D0B0F5184F03D0B0F51C4F48D11AE0B2
:1017200040F60410FFF796FE40F60410FFF780FE27
:101730003FE040F61100FFF78DFE40F61100FFF785
:1017400077FE36E040F61200FFF784FE40F6120006
:10175000FFF76EFE2DE040F60510FFF77BFE40F62A
:101760000510FFF765FE24E040F61300FFF772FE58
:1017700040F61300FFF75CFE1BE040F61400FFF795
:1017800069FE40F61400FFF753FE12E040F61E001B
:10179000FFF760FE40F61E00FFF74AFE09E040F644
:1017A0001F00FFF757FE40F61F00FFF741FE00E065
:1017B00000BF00BF10BD00000078004000BCFFBFAC
:1017C000C16841F40051C160704710B5024602EB98
:1017D0009110006801F01F040123A340184008B1D4
:1017E000012010BD0020FCE710B504464FF4406016
:1017F000FFF70CFE4FF44060FFF708FE41F20410C3
:10180000FFF704FE4FF4007207212048FEF716FF91
:101810004FF4806207211D48FEF710FF4FF400735C
:10182000012202211948FEF738FF4FF4806301229C
:1018300002211648FEF731FF4FF400730222002107
:101840001248FEF751FF4FF48063022200210F4837
:10185000FEF74AFF0E48FFF745FF21460C48FFF709
:10186000C9FE00210A4800F015F80021084800F0E0
:1018700039F80021064800F025F80548FFF7A0FFD9
:101880000821034800F026F810BD000000000240C7
:1018900000100140C26822F4C062C260C2680A43FC
:1018A000C260704710B5044621460548FFF716FF91
:1018B00000BF07210248FFF788FF0028F9D010BDBC
:1018C00000100140026922F44052026102690A4399
:1018D000026170470A460021C16821F008011143E6
:1018E000C1607047C26822F48052C260C2680A4375
:1018F000C260704701460A69D1E901309860D1E9B8
:10190000010358605068884201D188685060002007
:1019100008611068401E10601068704700F10801EF
:1019200041604FF0FF31816000F10801C160016149
:1019300000210160704700210161704710B5024627
:101940000B685C1C0CB9106907E002F1080000E0AC
:101950004068446824689C42FAD944684C604C68EA
:10196000A160886041600A611468641C146010BD45
:1019700042684A6093688B6093685960916008611F
:1019800003685B1C0360704700BF502080F3118820
:10199000BFF34F8FBFF36F8F00BF0E480068401C2E
:1019A0000C49086008460068012812D10A480068FE
:1019B000C0B208B9012000E0002050B900BF50209B
:1019C00080F31188BFF34F8FBFF36F8F00BF00BF4D
:1019D000FEE770478000002004ED00E00D4800683D
:1019E00050B900BF502080F31188BFF34F8FBFF371
:1019F0006F8F00BF00BFFEE706480068401E054924
:101A000008600846006820B9002080F3118800BFF4
:101A100000BF70478000002070B506463546002E96
:101A20003BD0083D2C466068C00F50B900BF502025
:101A300080F31188BFF34F8FBFF36F8F00BF00BFDC
:101A4000FEE7206808B9012000E0002050B900BF7F
:101A5000502080F31188BFF34F8FBFF36F8F00BF0B
:101A600000BFFEE76068C00FB8B12068A8B9606821
:101A700020F00040606000F0D9F90849606809680A
:101A80000844064908602046FFF75AF904480068F0
:101A9000401C0349086000F03BFE70BD7000002050
:101AA0007C00002000204FF0E0210861886106489A
:101AB00000684FF47A71B0FBF1F0401E4FF0E02166
:101AC00048610720086170470C00002030B50246CD
:101AD0000B46002152B900BF502484F31188BFF394
:101AE0004F8FBFF36F8F00BF00BFFEE7BBB1002079
:101AF00012E00D4C04EBC0046468944203D10A4C1C
:101B000004EBC0010AE031B9074C54F8304014B975
:101B1000054C04EBC001401C0828EAD300BF09B102
:101B20000B604A6030BD0000900000202DE9F041BC
:101B300005460E4617462C46FFF726FF94F944004B
:101B4000401C10B9002084F8440094F94500401C62
:101B500010B9002084F84500FFF740FFA06B28B9BA
:101B60003A46314604F1240000F0E0F82046FFF741
:101B7000D0FABDE8F081000070B504460025D4B16C
:101B80001248006808B9012000E0002050B900BFE9
:101B9000502080F31188BFF34F8FBFF36F8F00BFCA
:101BA00000BFFEE700F042F900212046FEF76EFE7E
:101BB00000F0AEFD05463DB94FF080500449086085
:101BC000BFF34F8FBFF36F8F70BD00004C0000203C
:101BD00004ED00E070B50546FFF7D6FE15B93248B2
:101BE000006800E028460446201DFFF783FE78B910
:101BF000E06A00EB80002D4951F8200040B994F8CC
:101C00002C10012088402A49096881432848016036
:101C1000A06A18B104F11800FFF76CFE25480068AF
:101C2000401C2449086020480068844209D1211DD5
:101C30002148FFF79DFE21480068401C1F490860AD
:101C400006E01F480068401E1D490860FFF7E4F9E0
:101C5000FFF7C4FE14480068844202D02046FEF715
:101C600056FF18480068E8B10F480068844219D14F
:101C70001548006808B9012000E0002050B900BFF5
:101C8000502080F31188BFF34F8FBFF36F8F00BFD9
:101C900000BFFEE74FF080500C490860BFF34F8F44
:101CA000BFF36F8F70BD000010000020D000002037
:101CB000280000203C000020700100201C000020B3
:101CC000200000202C0000204C00002004ED00E04B
:101CD00003490968016003490968416070470000D1
:101CE00038000020240000200120014908607047CE
:101CF0003400002070B504460D4654B900BF502092
:101D000080F31188BFF34F8FBFF36F8F00BF00BF09
:101D1000FEE70548016818312046FFF70FFE012154
:101D20002846FEF7B3FD70BD1000002070B50446D4
:101D30000E46154654B900BF502080F31188BFF3FA
:101D40004F8FBFF36F8F00BF00BFFEE760680F4982
:101D50000968C8610D49826809680A620B49096807
:101D60001831826851600949096818318160074952
:101D700009688C622168491C21600DB14FF0FF3663
:101D800029463046FEF782FD70BD0000100000209D
:101D90001CB51E4800210B468222CDE900101CA173
:101DA0001D4800F0FDFA0446012C02D100F06CFD44
:101DB0000446012C15D100BF502080F31188BFF3D9
:101DC0004F8FBFF36F8F00BF4FF0FF301349086094
:101DD00001201349086000201249086000F074F8DF
:101DE00010E0601C08B1012000E0002050B900BFE5
:101DF000502080F31188BFF34F8FBFF36F8F00BF68
:101E000000BFFEE7084800681CBD00004400002039
:101E100049444C4500000000B90B00084000002078
:101E20002C00002024000020480000200248006808
:101E3000401C0149086070474C0000201D480068A4
:101E400018B101201C49086032E000201A490860DE
:101E50001A480068B0FA80F0C0F11F0101EB810060
:101E6000174A52F8200008B1012000E0002050B9C4
:101E700000BF502080F31188BFF34F8FBFF36F8FE7
:101E800000BF00BFFEE701EB81020D4B03EB8200B8
:101E900042685268426000F108024368934202D1EE
:101EA0004268526842604268D268064B1A6000BFBE
:101EB000704700004C000020340000202800002063
:101EC000D0000020100000201CB552480068524984
:101ED000884201D0012000E0002050B900BF50200E
:101EE00080F31188BFF34F8FBFF36F8F00BF00BF28
:101EF000FEE7484800684849491E884201D0012051
:101F000000E0002050B900BF502080F31188BFF3DB
:101F10004F8FBFF36F8F00BF00BFFEE73F490846FA
:101F200000780190FF200A46107008460078009063
:101F30009DF8000000F0F0009DF80020904201D1D3
:101F4000012000E0002050B900BF502080F311882C
:101F5000BFF34F8FBFF36F8F00BF00BFFEE79DF849
:101F6000000000F050002E4A107007202D4A10602B
:101F700009E02C480068401E2A4A10609DF80000C5
:101F80004006000E00909DF8000000F080008028C0
:101F9000EFD024480068C0F10700042801D10120D7
:101FA00000E0002050B900BF502080F31188BFF33B
:101FB0004F8FBFF36F8F00BF00BFFEE71948006867
:101FC0000002184A10601046008800F4E0601060BB
:101FD000124A019810700F482030006840F47000D9
:101FE0000C49203108600846006840F070400860E5
:101FF000FFF758FD00200C490860FEF707F90B4871
:10200000006840F0404009490860FEF7EBF8002006
:102010001CBD000000ED00E071C20F4100E400E0D3
:1020200084000020880000208000002034EF00E0C1
:1020300010B500BF502080F31188BFF34F8FBFF35E
:102040006F8F00BF00F0F6F918B14FF080500449CF
:10205000086000BF002080F3118800BF10BD0000A1
:1020600004ED00E02DE9F84305460E46174600242E
:10207000E5B1601EB0FBF5F0B04217D305FB06F0EA
:1020800010F1510F12D805FB06F808F15000FFF7C8
:102090007FF80446B4B1A14609F150093B464A46CF
:1020A000314628460094FEF79BFD0BE054B900BF73
:1020B000502080F31188BFF34F8FBFF36F8F00BFA5
:1020C00000BFFEE72046BDE8F88300002DE9F0419F
:1020D00005460E4601272C4654B900BF502080F318
:1020E0001188BFF34F8FBFF36F8F00BF00BFFEE7B4
:1020F000002C42D0E06B00283FD04FF0FF31E06B66
:10210000B1FBF0F0216C884237D3FFF73DFCD4E9F6
:102110000F12206801FB0200A0600020A06320686D
:102120006060E06B401E226C216800FB0211E160E0
:10213000FF2084F8440084F845009EB9206908B95E
:10214000012000E00020A8B904F1100000F050FACE
:1021500080B14FF0805013490860BFF34F8FBFF339
:102160006F8F07E004F11000FFF7D8FB04F12400A3
:10217000FFF7D4FBFFF732FC00E000270FB101208E
:1021800000E0002050B900BF502080F31188BFF359
:102190004F8FBFF36F8F00BF00BFFEE73846BDE82B
:1021A000F081000004ED00E02DE9F74183B0054621
:1021B0000E464FF000082C4654B900BF502080F363
:1021C0001188BFF34F8FBFF36F8F00BF00BFFEE7D3
:1021D0000EB9206C08B9012000E0002050B900BF02
:1021E000502080F31188BFF34F8FBFF36F8F00BF74
:1021F00000BFFEE700F008F908B9059808B901200A
:1022000000E0002050B900BF502080F31188BFF3D8
:102210004F8FBFF36F8F00BF00BFFEE700BFFFF718
:10222000B3FBA76BF7B131462046FEF75BFC781E87
:10223000A063206908B9012000E0002060B904F122
:10224000100000F0D5F938B14FF080502F490860E8
:10225000BFF34F8FBFF36F8FFFF7C0FB012006B0B6
:10226000BDE8F081059818B9FFF7B8FB0020F6E744
:10227000B8F1000F04D101A8FFF72AFD4FF00108C3
:10228000FFF7ACFBFFF7D2FDFFF77EFB94F94400AC
:10229000401C10B9002084F8440094F94500401C0B
:1022A00010B9002084F84500FFF798FB05A901A8A4
:1022B00000F02EF8F0B92046FEF7A2FDA0B104F11F
:1022C00024000599FFF716FD2046FEF722FF00F0D7
:1022D0001FFA0028A3D14FF080500C490860BFF3CB
:1022E0004F8FBFF36F8F9AE72046FEF712FF00F083
:1022F0000FFA94E72046FEF70CFF00F009FA20469B
:10230000FEF77EFD00288AD00020A8E704ED00E05B
:1023100070B505460C4655B900BF502080F31188B2
:10232000BFF34F8FBFF36F8F00BF00BFFEE754B9FD
:1023300000BF502080F31188BFF34F8FBFF36F8F22
:1023400000BF00BFFEE7FFF71FFB13480268686885
:10235000131A2068401C08B9002619E00F492868A4
:102360000968884206D06868904203D80126002098
:1023700020600DE02068984207D92068C01A2060CC
:102380002846FFF7A5FC002602E000202060012679
:10239000FFF724FB304670BD2400002038000020E9
:1023A0002DE9FF4F85B0804689461746DDE912AB1F
:1023B000B800FEF7EDFE064676B15820FEF7E8FEBF
:1023C00004462CB158212046FDF787FF266304E020
:1023D0003046FFF721FB00E000247CB10020CDE96E
:1023E00000ABCDE902403A4649464046089BFEF71D
:1023F0000CFC2046FEF7AAFA012501E04FF0FF355C
:10240000284609B0BDE8F08F0549096809B90120DF
:1024100005E00449096809B9022000E0002070477E
:102420002C0000204C000020014908687047000083
:10243000240000202DE9F0414FF0000861480068B9
:1024400000287DD160480068451C5F48056015BBC9
:102450005E480068006808B9012000E0002050B91B
:1024600000BF502080F31188BFF34F8FBFF36F8FF1
:1024700000BF00BFFEE7554807685548006853494C
:1024800008605348076053480068401C5149086081
:10249000FEF7C2FD00BF50480068854277D300BFF9
:1024A0004A480068006808B9012000E0002020B117
:1024B0004FF0FF304849086068E044480068C06851
:1024C000C4686668B54202D2434806605EE060694F
:1024D000D4E902128A60D4E902214A60211D4268CF
:1024E0008A4201D1E1684160002262610168491EAF
:1024F0000160A06A98B1A06AD4E907128A60D4E9A1
:1025000007214A6004F1180142688A4201D1216A18
:1025100041600022A2620168491E016000BF94F878
:102520002C10012088402D49096808432B49086078
:10253000E16A01EB81012A4A02EB8101486800E06F
:1025400037E0A0608268E260211D8268516081608E
:10255000E16A01EB8101224A02EB81026261E16AD8
:1025600001EB81011E4A52F82110491CE26A02EB7C
:1025700082021B4B43F822101A49E06A0968C96AB3
:1025800088428DD94FF001088AE700E000BF154866
:102590000068C06A00EB8000114951F82000012852
:1025A00001D94FF001081048006808B14FF0010848
:1025B00004E00E480068401C0C4908604046BDE835
:1025C000F08100004C0000202400002014000020B6
:1025D00018000020380000204000002028000020C3
:1025E000D000002010000020340000203000002027
:1025F00070B50346D868C16851B900BF502080F358
:102600001188BFF34F8FBFF36F8F00BF00BFFEE78E
:10261000886AD1E90745A560D1E90754656001F1F1
:1026200018044568A54201D10C6A446000258D62FA
:102630000468641E04603048006800283DD1486981
:10264000D1E90245A560D1E9025465600C1D4568D9
:10265000A54201D1CC68446000254D610468641E28
:10266000046091F82C400120A040244C24682043B1
:10267000224C2060CC6A04EB8404214D05EB8404D9
:10268000606888608568CD600C1D85686C608460BA
:10269000CC6A04EB84041A4D05EB84054D61CC6AC9
:1026A00004EB8404164D55F82440641CCD6A05EBF8
:1026B0008505134E46F8254010E0124C6068C8614D
:1026C00085680D6201F1180485686C6084600D4DA9
:1026D0008D622C462468641C2C6000BF0A4CC86ABA
:1026E0002468E46AA04204D901220120074C20603A
:1026F00000E00022104670BD4C00002028000020A1
:10270000D00000205C0100201000002034000020D8
:1027100070B5002400265348006850B900BF50200F
:1027200080F31188BFF34F8FBFF36F8F00BF00BFDF
:10273000FEE7FFF729F94B480068401E4949086049
:102740000846006800287DD147480068002879D0F5
:102750005BE04648C068C468A06AD4E907128A6092
:10276000D4E907214A6004F1180142688A4201D184
:10277000216A41600022A2620168491E016060690D
:10278000D4E902128A60D4E902214A60211D42681C
:102790008A4201D1E1684160002262610168491EFC
:1027A000016094F82C1001208840314909680843E1
:1027B0002F490860E16A01EB81012E4A02EB810199
:1027C0004868A0608268E260211D82685160816073
:1027D000E16A01EB8101274A02EB81026261E16A51
:1027E00001EB8101234A52F82110491CE26A02EBF5
:1027F0008202204B43F822101F49E06A0968C96A27
:10280000884202D301201D4908601848006808B9B1
:10281000012000E0002000289BD00CB1FEF7FCFB5B
:102820001748056865B100BFFFF704FE10B101202D
:10283000124908606D1E002DF6D100201049086075
:102840000E4800E009E0006838B1012630070D4964
:102850000860BFF34F8FBFF36F8FFFF7BFF83046AD
:1028600070BD00004C000020200000205C01002012
:1028700028000020D000002010000020340000209C
:102880003000002004ED00E01CB50024FEF7D4F871
:102890000E48006858B10E48022100234FF482729E
:1028A000CDE900100BA10D48FFF77AFD044654B99D
:1028B00000BF502080F31188BFF34F8FBFF36F8F9D
:1028C00000BF00BFFEE720461CBD000058000020EE
:1028D0005C000020546D722053766300F9100008EC
:1028E0000029000800000020900000007404000887
:1028F0009029000890000020303101008404000875
:1029000000000000000000000000000000C2EB0B0F
:1029100000000000000000000000000000000000B7
:1029200000000000000000000000000000000000A7
:102930000000000000000000000000000000000097
:102940000000000000000000040000000000000083
:102950000000000000000000000000000000000077
:102960000000000000000000000000000000000067
:102970000000000000000000000000000000000057
:10298000AAAAAAAA0000000000000000000000009F
:04000005080001AD41
:00000001FF
